###############################################################################
#
# IAR ELF Linker V7.40.2.8542/W32 for ARM                 11/Jun/2015  16:23:16
# Copyright 2007-2015 IAR Systems AB.
#
#    Output file  =  
#        C:\Users\schuhm\Desktop\ProjetSpe\lora\projet\examples\I2C_gy_65\Debug\Exe\hello.out
#    Map file     =  
#        C:\Users\schuhm\Desktop\ProjetSpe\lora\projet\examples\I2C_gy_65\Debug\List\hello.map
#    Command line =  
#        C:\Users\schuhm\Desktop\ProjetSpe\lora\projet\examples\I2C_gy_65\Debug\Obj\aes.o
#        C:\Users\schuhm\Desktop\ProjetSpe\lora\projet\examples\I2C_gy_65\Debug\Obj\bootloader.o
#        C:\Users\schuhm\Desktop\ProjetSpe\lora\projet\examples\I2C_gy_65\Debug\Obj\debug.o
#        C:\Users\schuhm\Desktop\ProjetSpe\lora\projet\examples\I2C_gy_65\Debug\Obj\delay.o
#        C:\Users\schuhm\Desktop\ProjetSpe\lora\projet\examples\I2C_gy_65\Debug\Obj\hal.o
#        C:\Users\schuhm\Desktop\ProjetSpe\lora\projet\examples\I2C_gy_65\Debug\Obj\hw.o
#        C:\Users\schuhm\Desktop\ProjetSpe\lora\projet\examples\I2C_gy_65\Debug\Obj\lib_adc.o
#        C:\Users\schuhm\Desktop\ProjetSpe\lora\projet\examples\I2C_gy_65\Debug\Obj\lib_gy_65.o
#        C:\Users\schuhm\Desktop\ProjetSpe\lora\projet\examples\I2C_gy_65\Debug\Obj\lib_htu21d.o
#        C:\Users\schuhm\Desktop\ProjetSpe\lora\projet\examples\I2C_gy_65\Debug\Obj\lib_i2c.o
#        C:\Users\schuhm\Desktop\ProjetSpe\lora\projet\examples\I2C_gy_65\Debug\Obj\lmic.o
#        C:\Users\schuhm\Desktop\ProjetSpe\lora\projet\examples\I2C_gy_65\Debug\Obj\main.o
#        C:\Users\schuhm\Desktop\ProjetSpe\lora\projet\examples\I2C_gy_65\Debug\Obj\misc.o
#        C:\Users\schuhm\Desktop\ProjetSpe\lora\projet\examples\I2C_gy_65\Debug\Obj\oslmic.o
#        C:\Users\schuhm\Desktop\ProjetSpe\lora\projet\examples\I2C_gy_65\Debug\Obj\radio.o
#        C:\Users\schuhm\Desktop\ProjetSpe\lora\projet\examples\I2C_gy_65\Debug\Obj\startup_stm32l1xx_md_iar.o
#        C:\Users\schuhm\Desktop\ProjetSpe\lora\projet\examples\I2C_gy_65\Debug\Obj\stm32l1xx_adc.o
#        C:\Users\schuhm\Desktop\ProjetSpe\lora\projet\examples\I2C_gy_65\Debug\Obj\stm32l1xx_gpio.o
#        C:\Users\schuhm\Desktop\ProjetSpe\lora\projet\examples\I2C_gy_65\Debug\Obj\stm32l1xx_i2c.o
#        C:\Users\schuhm\Desktop\ProjetSpe\lora\projet\examples\I2C_gy_65\Debug\Obj\stm32l1xx_it.o
#        C:\Users\schuhm\Desktop\ProjetSpe\lora\projet\examples\I2C_gy_65\Debug\Obj\stm32l1xx_rcc.o
#        C:\Users\schuhm\Desktop\ProjetSpe\lora\projet\examples\I2C_gy_65\Debug\Obj\stm32l1xx_spi.o
#        C:\Users\schuhm\Desktop\ProjetSpe\lora\projet\examples\I2C_gy_65\Debug\Obj\stm32l1xx_usart.o
#        C:\Users\schuhm\Desktop\ProjetSpe\lora\projet\examples\I2C_gy_65\Debug\Obj\system_stm32l1xx.o
#        -o
#        C:\Users\schuhm\Desktop\ProjetSpe\lora\projet\examples\I2C_gy_65\Debug\Exe\hello.out
#        --map
#        C:\Users\schuhm\Desktop\ProjetSpe\lora\projet\examples\I2C_gy_65\Debug\List\hello.map
#        --config "C:\Program Files (x86)\IAR Systems\Embedded Workbench
#        7.2\arm\config\linker\ST\stm32l152xB.icf" --semihosting --entry
#        __iar_program_start --redirect __iar_sh_stdout=__iar_sh_stdout_swo
#        --vfe
#
###############################################################################

*******************************************************************************
*** RUNTIME MODEL ATTRIBUTES
***

CppFlavor       = *
__SystemLibrary = DLib


*******************************************************************************
*** PLACEMENT SUMMARY
***

"A1":  place at 0x08000000 { ro section .intvec };
"P1":  place in [from 0x08000000 to 0x0801ffff] { ro };
"P2":  place in [from 0x20000000 to 0x20003fff] { rw, block CSTACK, block HEAP };

  Section            Kind        Address    Size  Object
  -------            ----        -------    ----  ------
"A1":                                       0xf4
  .intvec            ro code  0x08000000    0xf4  startup_stm32l1xx_md_iar.o [1]
                            - 0x080000f4    0xf4

"P1":                                     0x351c
  .text              ro code  0x080000f4   0x724  stm32l1xx_i2c.o [1]
  .text              ro code  0x08000818    0xbe  main.o [1]
  .text              ro code  0x080008d6    0x22  zero_init3.o [5]
  .text              ro code  0x080008f8   0x3a4  stm32l1xx_rcc.o [1]
  .text              ro code  0x08000c9c    0xe4  debug.o [1]
  .text              ro code  0x08000d80   0x5b8  lib_gy_65.o [1]
  .text              ro code  0x08001338   0x140  oslmic.o [1]
  .text              ro code  0x08001478   0x19c  hw.o [1]
  .text              ro code  0x08001614   0x10c  bootloader.o [1]
  .text              ro code  0x08001720     0x6  ABImemclr4.o [5]
  .text              ro code  0x08001728   0x288  lib_i2c.o [1]
  .text              ro code  0x080019b0    0x24  delay.o [1]
  .text              ro code  0x080019d4   0x132  I64DivMod.o [5]
  .text              ro code  0x08001b08    0x22  I64Shl.o [5]
  .text              ro code  0x08001b2c    0x66  ABImemset.o [5]
  .text              ro code  0x08001b94   0x424  hal.o [1]
  .text              ro code  0x08001fb8   0x450  radio.o [1]
  .text              ro code  0x08002408    0x10  lmic.o [1]
  .text              ro code  0x08002418   0x398  stm32l1xx_gpio.o [1]
  .text              ro code  0x080027b0    0xb4  misc.o [1]
  .text              ro code  0x08002864   0x5e8  stm32l1xx_usart.o [1]
  .text              ro code  0x08002e4c    0x32  ABImemset48.o [5]
  .text              ro code  0x08002e80     0x2  I64DivZer.o [5]
  .text              ro code  0x08002e82     0x6  radio.o [1]
  .text              ro code  0x08002e88     0x8  radio.o [1]
  .text              ro code  0x08002e90     0x8  radio.o [1]
  .text              ro code  0x08002e98     0x8  radio.o [1]
  .text              ro code  0x08002ea0     0x8  radio.o [1]
  .text              ro code  0x08002ea8   0x170  system_stm32l1xx.o [1]
  .text              ro code  0x08003018    0xe0  stm32l1xx_adc.o [1]
  .text              ro code  0x080030f8    0xb0  stm32l1xx_it.o [1]
  .text              ro code  0x080031a8    0x10  lib_adc.o [1]
  .text              ro code  0x080031b8    0x42  strcmp_unaligned.o [5]
  .rodata            const    0x080031fc    0x48  stm32l1xx_gpio.o [1]
  .rodata            const    0x08003244    0x48  stm32l1xx_usart.o [1]
  .rodata            const    0x0800328c    0x44  stm32l1xx_adc.o [1]
  .rodata            const    0x080032d0    0x44  stm32l1xx_i2c.o [1]
  .rodata            const    0x08003314    0x44  stm32l1xx_rcc.o [1]
  .rodata            const    0x08003358    0x40  main.o [1]
  .rodata            const    0x08003398    0x3c  misc.o [1]
  .rodata            const    0x080033d4    0x30  debug.o [1]
  .text              ro code  0x08003404    0x2c  copy_init3.o [5]
  .text              ro code  0x08003430    0x28  data_init.o [5]
  .iar.init_table    const    0x08003458    0x24  - Linker created -
  .text              ro code  0x0800347c    0x1a  cmain.o [5]
  .text              ro code  0x08003496     0x4  low_level_init.o [3]
  .text              ro code  0x0800349a     0x4  exit.o [3]
  .text              ro code  0x080034a0     0xa  cexit.o [5]
  .text              ro code  0x080034ac    0x14  exit.o [6]
  .rodata            const    0x080034c0    0x18  main.o [1]
  .rodata            const    0x080034d8    0x14  debug.o [1]
  .rodata            const    0x080034ec    0x14  main.o [1]
  .rodata            const    0x08003500    0x10  main.o [1]
  .rodata            const    0x08003510    0x10  main.o [1]
  .rodata            const    0x08003520    0x10  radio.o [1]
  .text              ro code  0x08003530    0x10  startup_stm32l1xx_md_iar.o [1]
  .text              ro code  0x08003540     0xc  cstartup_M.o [5]
  .rodata            const    0x0800354c     0x8  hal.o [1]
  .rodata            const    0x08003554     0x8  hal.o [1]
  .rodata            const    0x0800355c     0x8  stm32l1xx_it.o [1]
  .rodata            const    0x08003564     0x4  radio.o [1]
  .text              ro code  0x08003568     0x4  startup_stm32l1xx_md_iar.o [1]
  .text              ro code  0x0800356c     0x4  startup_stm32l1xx_md_iar.o [1]
  .text              ro code  0x08003570     0x4  startup_stm32l1xx_md_iar.o [1]
  .text              ro code  0x08003574     0x4  startup_stm32l1xx_md_iar.o [1]
  .text              ro code  0x08003578     0x4  startup_stm32l1xx_md_iar.o [1]
  .text              ro code  0x0800357c     0x4  startup_stm32l1xx_md_iar.o [1]
  .text              ro code  0x08003580     0x4  startup_stm32l1xx_md_iar.o [1]
  .text              ro code  0x08003584     0x4  startup_stm32l1xx_md_iar.o [1]
  .text              ro code  0x08003588     0x4  startup_stm32l1xx_md_iar.o [1]
  .text              ro code  0x0800358c     0x4  startup_stm32l1xx_md_iar.o [1]
  .text              ro code  0x08003590     0x4  startup_stm32l1xx_md_iar.o [1]
  .text              ro code  0x08003594     0x4  startup_stm32l1xx_md_iar.o [1]
  .text              ro code  0x08003598     0x4  startup_stm32l1xx_md_iar.o [1]
  .text              ro code  0x0800359c     0x4  startup_stm32l1xx_md_iar.o [1]
  .text              ro code  0x080035a0     0x4  startup_stm32l1xx_md_iar.o [1]
  .text              ro code  0x080035a4     0x4  startup_stm32l1xx_md_iar.o [1]
  .text              ro code  0x080035a8     0x4  startup_stm32l1xx_md_iar.o [1]
  .text              ro code  0x080035ac     0x4  startup_stm32l1xx_md_iar.o [1]
  .text              ro code  0x080035b0     0x4  startup_stm32l1xx_md_iar.o [1]
  .text              ro code  0x080035b4     0x4  startup_stm32l1xx_md_iar.o [1]
  .text              ro code  0x080035b8     0x4  startup_stm32l1xx_md_iar.o [1]
  .text              ro code  0x080035bc     0x4  startup_stm32l1xx_md_iar.o [1]
  .text              ro code  0x080035c0     0x4  startup_stm32l1xx_md_iar.o [1]
  .text              ro code  0x080035c4     0x4  startup_stm32l1xx_md_iar.o [1]
  .text              ro code  0x080035c8     0x4  startup_stm32l1xx_md_iar.o [1]
  .text              ro code  0x080035cc     0x4  startup_stm32l1xx_md_iar.o [1]
  .text              ro code  0x080035d0     0x4  startup_stm32l1xx_md_iar.o [1]
  .text              ro code  0x080035d4     0x4  startup_stm32l1xx_md_iar.o [1]
  .text              ro code  0x080035d8     0x4  startup_stm32l1xx_md_iar.o [1]
  .text              ro code  0x080035dc     0x4  startup_stm32l1xx_md_iar.o [1]
  .text              ro code  0x080035e0     0x4  startup_stm32l1xx_md_iar.o [1]
  .text              ro code  0x080035e4     0x4  startup_stm32l1xx_md_iar.o [1]
  .text              ro code  0x080035e8     0x4  startup_stm32l1xx_md_iar.o [1]
  .text              ro code  0x080035ec     0x4  startup_stm32l1xx_md_iar.o [1]
  .text              ro code  0x080035f0     0x4  startup_stm32l1xx_md_iar.o [1]
  .rodata            const    0x080035f4     0x0  zero_init3.o [5]
  .rodata            const    0x080035f4     0x0  copy_init3.o [5]
  Initializer bytes  const    0x080035f4    0x1c  <for P2 s0>
                            - 0x08003610  0x351c

"P2":                                      0xa60
  P2 s0                       0x20000000    0x1c  <Init block>
    .data            inited   0x20000000    0x10  stm32l1xx_rcc.o [1]
    .data            inited   0x20000010     0xc  stm32l1xx_rcc.o [1]
  .bss               zero     0x2000001c   0x1a8  lmic.o [1]
  .bss               zero     0x200001c4    0x3c  lib_adc.o [1]
  .bss               zero     0x20000200     0x4  bootloader.o [1]
  .bss               zero     0x20000208    0x28  lib_gy_65.o [1]
  .bss               zero     0x20000230    0x10  radio.o [1]
  .bss               zero     0x20000240     0x8  hal.o [1]
  .bss               zero     0x20000248     0x8  oslmic.o [1]
  .bss               zero     0x20000250     0x8  stm32l1xx_it.o [1]
  .bss               zero     0x20000258     0x1  stm32l1xx_it.o [1]
  CSTACK                      0x20000260   0x800  <Block>
    CSTACK           uninit   0x20000260   0x800  <Block tail>
                            - 0x20000a60   0xa60


*******************************************************************************
*** INIT TABLE
***

          Address     Size
          -------     ----
Zero (__iar_zero_init3)
    1 destination range, total size 0x23d:
          0x2000001c  0x23d

Copy (__iar_copy_init3)
    1 source range, total size 0x1c:
          0x080035f4   0x1c
    1 destination range, total size 0x1c:
          0x20000000   0x1c



*******************************************************************************
*** MODULE SUMMARY
***

    Module                      ro code  ro data  rw data
    ------                      -------  -------  -------
C:\Users\schuhm\Desktop\ProjetSpe\lora\projet\examples\I2C_gy_65\Debug\Obj: [1]
    bootloader.o                    268                 4
    debug.o                         228       68
    delay.o                          36
    hal.o                         1 060       16        8
    hw.o                            412
    lib_adc.o                        16                60
    lib_gy_65.o                   1 464                40
    lib_i2c.o                       648
    lmic.o                           16               424
    main.o                          190      140
    misc.o                          180       60
    oslmic.o                        320                 8
    radio.o                       1 142       20       16
    startup_stm32l1xx_md_iar.o      400
    stm32l1xx_adc.o                 224       68
    stm32l1xx_gpio.o                920       72
    stm32l1xx_i2c.o               1 828       68
    stm32l1xx_it.o                  176        8        9
    stm32l1xx_rcc.o                 932       96       28
    stm32l1xx_usart.o             1 512       72
    system_stm32l1xx.o              368
    -----------------------------------------------------
    Total:                       12 340      688      597

command line: [2]
    -----------------------------------------------------
    Total:

dl7M_tln.a: [3]
    exit.o                            4
    low_level_init.o                  4
    -----------------------------------------------------
    Total:                            8

m7M_tl.a: [4]
    -----------------------------------------------------
    Total:

rt7M_tl.a: [5]
    ABImemclr4.o                      6
    ABImemset.o                     102
    ABImemset48.o                    50
    I64DivMod.o                     306
    I64DivZer.o                       2
    I64Shl.o                         34
    cexit.o                          10
    cmain.o                          26
    copy_init3.o                     44
    cstartup_M.o                     12
    data_init.o                      40
    strcmp_unaligned.o               66
    zero_init3.o                     34
    -----------------------------------------------------
    Total:                          732

shb_l.a: [6]
    exit.o                           20
    -----------------------------------------------------
    Total:                           20

    Gaps                             14        2        4
    Linker created                            36    2 048
---------------------------------------------------------
    Grand Total:                 13 114      726    2 649


*******************************************************************************
*** ENTRY LIST
***

Entry                      Address   Size  Type      Object
-----                      -------   ----  ----      ------
.iar.init_table$$Base   0x08003458          --   Gb  - Linker created -
.iar.init_table$$Limit  0x0800347c          --   Gb  - Linker created -
?main                   0x0800347d         Code  Gb  cmain.o [5]
ADC1_IRQHandler         0x0800310b   0x20  Code  Gb  stm32l1xx_it.o [1]
ADC_ClearITPendingBit   0x08003097   0x56  Code  Gb  stm32l1xx_adc.o [1]
ADC_GetITStatus         0x08003019   0x7e  Code  Gb  stm32l1xx_adc.o [1]
APBAHBPrescTable        0x20000000   0x10  Data  Lc  stm32l1xx_rcc.o [1]
BusFault_Handler        0x080030ff    0x2  Code  Gb  stm32l1xx_it.o [1]
CSTACK$$Base            0x20000260          --   Gb  - Linker created -
CSTACK$$Limit           0x20000a60          --   Gb  - Linker created -
DebugMon_Handler        0x08003105    0x2  Code  Gb  stm32l1xx_it.o [1]
EXTI0_IRQHandler        0x08001d05    0x8  Code  Gb  hal.o [1]
EXTI15_10_IRQHandler    0x08001d35    0x8  Code  Gb  hal.o [1]
EXTI1_IRQHandler        0x08001d0d    0x8  Code  Gb  hal.o [1]
EXTI2_IRQHandler        0x08001d15    0x8  Code  Gb  hal.o [1]
EXTI3_IRQHandler        0x08001d1d    0x8  Code  Gb  hal.o [1]
EXTI4_IRQHandler        0x08001d25    0x8  Code  Gb  hal.o [1]
EXTI9_5_IRQHandler      0x08001d2d    0x8  Code  Gb  hal.o [1]
EXTI_IRQHandler         0x08001cc1   0x44  Code  Gb  hal.o [1]
GPIO_Init               0x08002419  0x196  Code  Gb  stm32l1xx_gpio.o [1]
GPIO_PinAFConfig        0x080025d1  0x1bc  Code  Gb  stm32l1xx_gpio.o [1]
HAL                     0x20000240    0x8  Data  Lc  hal.o [1]
HardFault_Handler       0x080030fb    0x2  Code  Gb  stm32l1xx_it.o [1]
I2C_AcknowledgeConfig   0x08000405   0x56  Code  Gb  stm32l1xx_i2c.o [1]
I2C_CheckEvent          0x080005b5   0xec  Code  Gb  stm32l1xx_i2c.o [1]
I2C_Cmd                 0x08000303   0x56  Code  Gb  stm32l1xx_i2c.o [1]
I2C_DeInit              0x080000f5   0x52  Code  Gb  stm32l1xx_i2c.o [1]
I2C_GenerateSTART       0x08000359   0x56  Code  Gb  stm32l1xx_i2c.o [1]
I2C_GenerateSTOP        0x080003af   0x56  Code  Gb  stm32l1xx_i2c.o [1]
I2C_GetFlagStatus       0x080006b1   0xe6  Code  Gb  stm32l1xx_i2c.o [1]
I2C_ITConfig            0x0800054b   0x62  Code  Gb  stm32l1xx_i2c.o [1]
I2C_Init                0x08000147  0x19c  Code  Gb  stm32l1xx_i2c.o [1]
I2C_NACKPositionConfig  0x080004f3   0x58  Code  Gb  stm32l1xx_i2c.o [1]
I2C_ReceiveData         0x080004d1   0x22  Code  Gb  stm32l1xx_i2c.o [1]
I2C_Send7bitAddress     0x0800045b   0x52  Code  Gb  stm32l1xx_i2c.o [1]
I2C_SendData            0x080004ad   0x24  Code  Gb  stm32l1xx_i2c.o [1]
I2C_StructInit          0x080002e3   0x20  Code  Gb  stm32l1xx_i2c.o [1]
LMIC                    0x2000001c  0x1a8  Data  Gb  lmic.o [1]
LMIC_init               0x08002409    0xa  Code  Gb  lmic.o [1]
LORA_RXDONE_FIXUP       0x08003520   0x10  Data  Lc  radio.o [1]
MemManage_Handler       0x080030fd    0x2  Code  Gb  stm32l1xx_it.o [1]
NMI_Handler             0x080030f9    0x2  Code  Gb  stm32l1xx_it.o [1]
NVIC_Init               0x080027b1   0x9e  Code  Gb  misc.o [1]
OS                      0x20000248    0x8  Data  Lc  oslmic.o [1]
PLLMulTable             0x20000010    0xc  Data  Lc  stm32l1xx_rcc.o [1]
PendSV_Handler          0x08003107    0x2  Code  Gb  stm32l1xx_it.o [1]
RCC_AHBPeriphClockCmd   0x08000a95   0x5c  Code  Gb  stm32l1xx_rcc.o [1]
RCC_APB1PeriphClockCmd  0x08000b4d   0x5c  Code  Gb  stm32l1xx_rcc.o [1]
RCC_APB1PeriphResetCmd  0x08000c01   0x50  Code  Gb  stm32l1xx_rcc.o [1]
RCC_APB2PeriphClockCmd  0x08000af1   0x5c  Code  Gb  stm32l1xx_rcc.o [1]
RCC_APB2PeriphResetCmd  0x08000ba9   0x58  Code  Gb  stm32l1xx_rcc.o [1]
RCC_DeInit              0x080008f9   0x5e  Code  Gb  stm32l1xx_rcc.o [1]
RCC_GetClocksFreq       0x08000957  0x13e  Code  Gb  stm32l1xx_rcc.o [1]
Region$$Table$$Base     0x08003458          --   Gb  - Linker created -
Region$$Table$$Limit    0x0800347c          --   Gb  - Linker created -
SVC_Handler             0x08003103    0x2  Code  Gb  stm32l1xx_it.o [1]
SetSysClock             0x08002efb   0xf2  Code  Lc  system_stm32l1xx.o [1]
SysTick_Handler         0x08003109    0x2  Code  Gb  stm32l1xx_it.o [1]
SystemInit              0x08002ea9   0x52  Code  Gb  system_stm32l1xx.o [1]
TIM9_IRQHandler         0x08001ec5   0x26  Code  Gb  hal.o [1]
USART1_IRQHandler       0x0800312b   0x68  Code  Gb  stm32l1xx_it.o [1]
USART_ClearFlag         0x08002d27   0x70  Code  Gb  stm32l1xx_usart.o [1]
USART_ClearITPendingBit
                        0x08002d97   0x9e  Code  Gb  stm32l1xx_usart.o [1]
USART_Cmd               0x08002b19   0x6e  Code  Gb  stm32l1xx_usart.o [1]
USART_DeInit            0x08002865   0xcc  Code  Gb  stm32l1xx_usart.o [1]
USART_ITConfig          0x08002be9  0x13e  Code  Gb  stm32l1xx_usart.o [1]
USART_IT_init           0x08001615   0xb2  Code  Gb  bootloader.o [1]
USART_Init              0x08002931  0x1e8  Code  Gb  stm32l1xx_usart.o [1]
USART_ReceiveData       0x08002b87   0x40  Code  Gb  stm32l1xx_usart.o [1]
UsageFault_Handler      0x08003101    0x2  Code  Gb  stm32l1xx_it.o [1]
__aeabi_ldiv0           0x08002e81         Code  Gb  I64DivZer.o [5]
__aeabi_ldivmod         0x080019d5         Code  Gb  I64DivMod.o [5]
__aeabi_llsl            0x08001b09         Code  Gb  I64Shl.o [5]
__aeabi_memclr4         0x08001721         Code  Gb  ABImemclr4.o [5]
__aeabi_memset          0x08001b2d         Code  Gb  ABImemset.o [5]
__aeabi_uldivmod        0x08001a19         Code  Gb  I64DivMod.o [5]
__cmain                 0x0800347d         Code  Gb  cmain.o [5]
__exit                  0x080034ad   0x14  Code  Gb  exit.o [6]
__iar_Memset            0x08001b2d         Code  Gb  ABImemset.o [5]
__iar_Memset4_word      0x08002e4d         Code  Gb  ABImemset48.o [5]
__iar_Memset8_word      0x08002e4d         Code  Gb  ABImemset48.o [5]
__iar_Memset_word       0x08001b35         Code  Gb  ABImemset.o [5]
__iar_copy_init3        0x08003405   0x2c  Code  Gb  copy_init3.o [5]
__iar_data_init3        0x08003431   0x28  Code  Gb  data_init.o [5]
__iar_program_start     0x08003541         Code  Gb  cstartup_M.o [5]
__iar_strcmp            0x080031b9         Code  Gb  strcmp_unaligned.o [5]
__iar_unaligned_strcmp  0x080031b9         Code  Gb  strcmp_unaligned.o [5]
__iar_zero_init3        0x080008d7   0x22  Code  Gb  zero_init3.o [5]
__low_level_init        0x08003497    0x4  Code  Gb  low_level_init.o [3]
__vector_table          0x08000000         Data  Gb  startup_stm32l1xx_md_iar.o [1]
_call_main              0x08003489         Code  Gb  cmain.o [5]
_exit                   0x080034a1         Code  Gb  cexit.o [5]
_main                   0x08003493         Code  Gb  cmain.o [5]
assert_failed           0x080008d5    0x2  Code  Gb  main.o [1]
bootloader_init         0x080016c7   0x3a  Code  Gb  bootloader.o [1]
cal_gy_65               0x20000208   0x28  Data  Gb  lib_gy_65.o [1]
calc_pressure           0x08001081  0x2ac  Code  Gb  lib_gy_65.o [1]
calc_temp               0x08000fdd   0x9c  Code  Gb  lib_gy_65.o [1]
calibration_gy_65       0x08000ef7   0xe6  Code  Gb  lib_gy_65.o [1]
configChannel           0x08002123   0x44  Code  Lc  radio.o [1]
configLoraModem         0x08002067   0xbc  Code  Lc  radio.o [1]
debug_char              0x08000cf7   0x10  Code  Gb  debug.o [1]
debug_init              0x08000c9d   0x48  Code  Gb  debug.o [1]
debug_int               0x08000d07   0x42  Code  Gb  debug.o [1]
debug_led               0x08000ce5   0x12  Code  Gb  debug.o [1]
debug_str               0x08000d49   0x16  Code  Gb  debug.o [1]
deltaticks              0x08001e35   0x26  Code  Lc  hal.o [1]
exit                    0x0800349b    0x4  Code  Gb  exit.o [3]
getBw                   0x08002e89    0x8  Code  Gb  radio.o [1]
getCr                   0x08002e91    0x8  Code  Gb  radio.o [1]
getIh                   0x08002ea1    0x8  Code  Gb  radio.o [1]
getNocrc                0x08002e99    0x8  Code  Gb  radio.o [1]
getSf                   0x08002e83    0x6  Code  Gb  radio.o [1]
get_sensor              0x08000819   0x62  Code  Lc  main.o [1]
get_temp                0x08001079    0x8  Code  Gb  lib_gy_65.o [1]
gy_65_cmd               0x08000d9f   0xaa  Code  Gb  lib_gy_65.o [1]
gy_65_init              0x08000d81   0x1e  Code  Gb  lib_gy_65.o [1]
hal_checkTimer          0x08001e6b   0x5a  Code  Gb  hal.o [1]
hal_disableIRQs         0x08001eeb    0xe  Code  Gb  hal.o [1]
hal_enableIRQs          0x08001ef9   0x16  Code  Gb  hal.o [1]
hal_failed              0x08001fad    0xc  Code  Gb  hal.o [1]
hal_init                0x08001f1f   0x28  Code  Gb  hal.o [1]
hal_io_init             0x08001b95   0xb2  Code  Lc  hal.o [1]
hal_pin_nss             0x08001c77   0x12  Code  Gb  hal.o [1]
hal_pin_rst             0x08001c89   0x38  Code  Gb  hal.o [1]
hal_pin_rxtx            0x08001c47   0x30  Code  Gb  hal.o [1]
hal_sleep               0x08001f0f   0x10  Code  Gb  hal.o [1]
hal_spi                 0x08001d79   0x18  Code  Gb  hal.o [1]
hal_spi_init            0x08001d3d   0x3c  Code  Lc  hal.o [1]
hal_ticks               0x08001e0b   0x2a  Code  Gb  hal.o [1]
hal_time_init           0x08001d91   0x7a  Code  Lc  hal.o [1]
hal_waitUntil           0x08001e5b   0x10  Code  Gb  hal.o [1]
hw_cfg_extirq           0x08001521   0xd8  Code  Gb  hw.o [1]
hw_cfg_pin              0x08001479   0x8e  Code  Gb  hw.o [1]
hw_set_pin              0x08001507   0x1a  Code  Gb  hw.o [1]
i2c_init_pin            0x08001729   0xca  Code  Gb  lib_i2c.o [1]
i2c_restart_read        0x080018fd   0x90  Code  Gb  lib_i2c.o [1]
i2c_start_read          0x0800188d   0x70  Code  Gb  lib_i2c.o [1]
i2c_write               0x080017f3   0x9a  Code  Gb  lib_i2c.o [1]
init_sensor             0x0800087b   0x1e  Code  Lc  main.o [1]
inputpins               0x08003554    0x8  Data  Lc  hal.o [1]
irq_adc_handler         0x080031a9    0xa  Code  Gb  lib_adc.o [1]
main                    0x08000899   0x1a  Code  Gb  main.o [1]
opmode                  0x0800203b   0x1c  Code  Lc  radio.o [1]
opmodeLora              0x08002057   0x10  Code  Lc  radio.o [1]
os_clearCallback        0x0800137f   0x2e  Code  Gb  oslmic.o [1]
os_delay                0x080019b1   0x24  Code  Gb  delay.o [1]
os_getTime              0x08001359    0x8  Code  Gb  oslmic.o [1]
os_init                 0x08001339   0x20  Code  Gb  oslmic.o [1]
os_runloop              0x08001419   0x56  Code  Gb  oslmic.o [1]
os_setCallback          0x080013ad   0x2c  Code  Gb  oslmic.o [1]
os_setTimedCallback     0x080013d9   0x40  Code  Gb  oslmic.o [1]
outputpins              0x0800354c    0x8  Data  Lc  hal.o [1]
radio_init              0x0800221d   0xa0  Code  Gb  radio.o [1]
radio_irq_handler       0x080022bd  0x12c  Code  Gb  radio.o [1]
randbuf                 0x20000230   0x10  Data  Lc  radio.o [1]
readBuf                 0x08002005   0x36  Code  Lc  radio.o [1]
readReg                 0x08001fdf   0x26  Code  Lc  radio.o [1]
receive_gy_65           0x08000e49   0xae  Code  Gb  lib_gy_65.o [1]
rxlora                  0x08002167   0xb6  Code  Lc  radio.o [1]
rxlorairqmask           0x08003564    0x4  Data  Lc  radio.o [1]
struct_adc              0x200001c4   0x3c  Data  Gb  lib_adc.o [1]
sys_mem_bootjmp         0x20000200    0x4  Data  Gb  bootloader.o [1]
unlinkjob               0x08001361   0x1e  Code  Lc  oslmic.o [1]
writeReg                0x08001fb9   0x26  Code  Lc  radio.o [1]


[1] = C:\Users\schuhm\Desktop\ProjetSpe\lora\projet\examples\I2C_gy_65\Debug\Obj
[2] = command line
[3] = dl7M_tln.a
[4] = m7M_tl.a
[5] = rt7M_tl.a
[6] = shb_l.a

  13 114 bytes of readonly  code memory
     726 bytes of readonly  data memory
   2 649 bytes of readwrite data memory

Errors: none
Warnings: none
