:020000040800F2
:10000000200A00201D260008C5240008C724000877
:10001000C9240008CB240008CD24000800000000FB
:10002000000000000000000000000000CF240008D5
:10003000D124000800000000D3240008D5240008C3
:100040006D2600087126000875260008792600082C
:100050007D26000881260008F5180008FD18000814
:10006000051900080D190008151900088526000853
:10007000892600088D26000891260008952600088C
:10008000992600089D260008D7240008A12600080C
:10009000A5260008A9260008AD2600081D1900089D
:1000A000B1260008B51A0008B5260008B9260008D0
:1000B000BD260008C1260008C5260008C92600087C
:1000C000CD260008D1260008D5260008D92600082C
:1000D000DD260008E1260008E5260008E9260008DC
:1000E00025190008ED260008F1260008F52600086D
:1000F000F92600082DE9F04385B004000D00002624
:1001000000275FF00408DFF88095DFF87805844267
:1001100008D0DFF87C04844204D0A221DFF8740404
:1001200000F0AAFB2868002804D02868DFF85C15D6
:10013000884204D3A321DFF85C0400F09DFBA8886B
:1001400000280AD0A888022807D0A8880A2804D046
:10015000A421DFF8400400F08FFBE888B0F5804F61
:1001600009D0E8884BF6FF71884204D0A521DFF85A
:10017000240400F081FB2889B0F5806F04DBA62100
:10018000DFF8100400F078FB6889B0F5806F07D0C5
:100190006889002804D0A721DFF8F80300F06CFB81
:1001A000A889B0F5804F08D0A889B0F5404F04D099
:1001B000A821DFF8E00300F05FFBA08806004FF6FF
:1001C000C070064000A800F069FB02988146DFF885
:1001D000C004B9FBF0F007003E43A68020884FF62C
:1001E000FE7108402080002006002868DFF88C158A
:1001F000884210D228684000B9FBF0F080461FFA10
:1002000088F8B8F1040F01DA0420804658EA06069F
:10021000781C208426E0E8884BF6FF71884206D1DE
:10022000286803214843B9FBF0F0804607E02868BE
:1002300019214843B9FBF0F0804658F480485FEA42
:10024000085001D158F0010858F400400643BFB2ED
:100250004FF4967000FB07F04FF47A7190FBF1F0C9
:10026000401C2084A683208850F001002080208834
:1002700006004FF6F5300640A88869890843064312
:100280002680A88929890843208105B0BDE8F0832C
:1002900038B504000D00DFF8EC03844209D0DFF824
:1002A000F002844205D040F22311DFF8E80200F0AA
:1002B000E3FAEDB2002D08D0EDB2012D05D04FF4D8
:1002C0009271DFF8D00200F0D7FAEDB2002D04D021
:1002D000208850F00100208004E020884FF6FE7155
:1002E0000840208031BD38B504000D00DFF89403CC
:1002F000844209D0DFF89802844205D040F23B11D5
:10030000DFF8900200F0B8FAEDB2002D08D0EDB29F
:10031000012D05D04FF49E71DFF8780200F0ACFAA1
:10032000EDB2002D04D0208850F48070208004E0CD
:1003300020884FF6FF610840208031BD38B50400A9
:100340000D00DFF84003844209D0DFF84402844204
:1003500005D040F25311DFF83C0200F08DFAEDB207
:10036000002D08D0EDB2012D05D04FF4AA71DFF8B1
:10037000240200F081FAEDB2002D04D0208850F460
:100380000070208004E020884FF6FF510840208054
:1003900031BD38B504000D00DFF8E802844209D011
:1003A000DFF8EC01844205D040F26B11DFF8E40184
:1003B00000F062FAEDB2002D08D0EDB2012D05D0AB
:1003C0004FF4B671DFF8CC0100F056FAEDB2002D13
:1003D00004D0208850F48060208004E020884FF60C
:1003E000FF310840208031BD38B504000D00DFF832
:1003F0009402844209D0DFF89801844205D040F28B
:100400001721DFF8900100F037FAEDB2002D08D087
:10041000EDB2012D05D04FF40671DFF8780100F040
:100420002BFAEDB2002D04D1208850F080002080FE
:1004300004E020884FF67F710840208031BD70B500
:1004400004000D001600DFF83C02844209D0DFF8FA
:100450004001844205D04FF41371DFF8380100F0F9
:100460000BFAF6B2002E08D0F6B2012E05D040F2FB
:100470004D21DFF8200100F0FFF9F6B2002E02D086
:1004800055F0010501E015F0FE05EDB2258270BDC5
:1004900038B504000D00DFF8EC01844207D03C4879
:1004A000844204D040F276213A4800F0E5F9EDB2FA
:1004B000258231BD10B50400DFF8C801844207D0A1
:1004C0003348844204D040F28321324800F0D4F90A
:1004D000208AC0B210BD38B504000D00DFF8A401B9
:1004E000844207D02A48844204D040F29F21294800
:1004F00000F0C2F9ADB2B5F5006F09D0ADB24FF260
:10050000FF70854204D04FF42871224800F0B4F9FE
:10051000ADB2B5F5006F04D1208850F400602080A2
:1005200004E020884FF2FF710840208031BD70B593
:1005300004000D0016005348844207D0144884423A
:1005400004D04FF47B71134800F096F9F6B2002EF8
:1005500007D0F6B2012E04D040F2ED310D4800F084
:100560008BF94FF6FF00054202D1ADB2002D04D148
:1005700040F2EE31074800F07FF9F6B2002E03D0CA
:10058000A0882843A08002E0A088A843A08070BD76
:1005900000580040342400082DE9F84304000D0001
:1005A000002600275FF000085FF00009354884420C
:1005B00009D0DFF8CC01844205D040F22941DFF8B0
:1005C000C40100F059F9DFF8C001854242D0B5F10D
:1005D000021F3FD0DFF8B40185423BD0B5F5020FD2
:1005E00038D0B5F5901F35D0DFF8A401854231D061
:1005F000DFF8A00185422DD0DFF89C01854229D08B
:10060000DFF89801854225D0DFF89401854221D09A
:10061000644885421ED0102D1CD06348854219D0F5
:100620006248854216D06248854213D061488542AF
:1006300010D0614885420DD0604885420AD060489C
:10064000854207D0B5F5806F04D040F22A414D486D
:1006500000F012F9A08A0700208B80465FEA084864
:1006600058EA07000002000A060015EA0600A84240
:1006700002D10120814601E0002081464846C0B2F7
:10068000BDE8F2830054004000127A00811A06008F
:1006900040420F007CB504000D00002600200190B0
:1006A000002000904748844207D03548844204D057
:1006B00040F28F41334800F0DFF8B5F5000F40D02D
:1006C000B5F5800F3DD0B5F5001F3AD0B5F5801FC8
:1006D00037D0B5F5802F34D0B5F5003F31D0B5F522
:1006E000803F2ED0384885422BD03848854228D0CC
:1006F000B5F1102F25D03648854222D035488542A5
:100700001FD0354885421CD03448854219D0344822
:10071000854216D03348854213D03348854210D0E5
:10072000324885420DD0324885420AD03148854250
:1007300007D03148854204D04FF49261114800F04F
:100740009BF80094280F01902D022D0A0198002893
:1007500003D000981430009003E02D0C009818305E
:10076000009000980068284202D00120060001E0B5
:10077000002006003000C0B276BD0000A186010056
:1007800000580040342400088200060080008600E3
:100790004000020040008200400012008400060079
:1007A0008400860084001600010003008200070018
:1007B00002000300400003008400070080000700DF
:1007C00008000300005400400080001000400010AA
:1007D00000080010000400100002001000010010CA
:1007E00080000010400000101000001008000010F1
:1007F00004000010020000100100001010B50400F9
:10080000184800F07FF900F0DCFA00F05AF900F027
:1008100007FB154A10F50041200000F041FB10BD18
:1008200010B50400114800F06DF90721012000F017
:1008300085F900212D2000F0BAFA0D4800F062F988
:100840000949200000F016FB10BDE0B500F0D8FA11
:1008500000F004F9074900A800F00CFB00F040FB91
:1008600000200EBD2C260008FD07000860260008A9
:100870003826000821080008FEE750F8041B61B183
:1008800050F8042BD30744BFA9F101039A180023A1
:10089000091F42F8043BFAD1EFE77047F0B400219A
:1008A00000220023002400250026DFF88C713F6819
:1008B00017F00C0739000F00002F06D0042F15D0B9
:1008C000082F17D00C2F19D042E0DFF874713F6861
:1008D000C7F342373E00012716F1010C17FA0CF757
:1008E0004FF4004C0CFB07F7076041E0DFF8547150
:1008F00007603DE0DFF85071076039E0DFF83871DC
:100900003F6817F470173A00DFF82C713F6817F44E
:1009100040073B00DFF83471920CD25D9B0D5B1CED
:10092000DFF814713F6817F480373C00002C07D1C2
:10093000DFF8107107FB02F7B7FBF3F7076006E07B
:10094000DFF8047107FB02F7B7FBF3F707600FE06E
:10095000DFF8EC703F68C7F342373E00012716F11D
:10096000010C17FA0CF74FF4004C0CFB07F707606B
:10097000DFF8C4703F6817F0F00739000909DFF8A5
:10098000D070CF5D3D000768BC463CFA05FCC0F85E
:1009900004C0DFF8A4703F6817F4E0673900090A63
:1009A000DFF8AC70CF5D3D004768BC463CFA05FC03
:1009B000C0F808C0DFF880703F6817F4605739004E
:1009C000C90ADFF88C70CF5D3D004768BC463CFA31
:1009D00005FCC0F80CC0F0BC704738B504000D0031
:1009E000DFF87000044201D1002C05D14FF495616D
:1009F000DFF84800FFF740FFEDB2002D08D0EDB260
:100A0000012D05D040F2A941DFF83000FFF734FF97
:100A1000EDB2002D07D0DFF8400000682043DFF87A
:100A20003810086006E0DFF830000068A043DFF807
:100A30002810086031BD0000083802407C240008FE
:100A4000043802400024F40000127A001000002054
:100A500000000020C035014F2438024080B54FF41B
:100A6000347208212D4800F06BFA002000F018F8CD
:100A70002B48006850F480402949086040F2E72282
:100A80000921264800F05CFA40F21510254908803B
:100A900042F2080024490880244800F033F801BDE0
:100AA00010B504002200D2B208211C4800F08FFAD1
:100AB00010BD1F4909880906FBD5C0B21D49088031
:100AC000704730B589B0040000A8202100F006FB73
:100AD0001E25002C0FD0002D0DD00A20B4FBF0F104
:100AE00000FB11401449405C00A968546D1E0A20A7
:100AF000B4FBF0F4EDE700A82818401C00F002F861
:100B000009B030BD10B504002078002804D020784A
:100B1000FFF7CFFF641CF7E710BD000000000240A4
:100B200020380240083801400C3801400C250008EC
:100B30000038014004380140F825000830B587B07E
:100B400004000D0001215FF40010FFF746FF4FF491
:100B50004070009003208DF8050002208DF80400FD
:100B600001208DF8060001208DF8070000A99B48A0
:100B700000F0B8FA04220821984800F08FFB042204
:100B80000921964800F08AFB0020ADF80C004BF6D6
:100B9000FF70ADF80E000020ADF810004FF480603B
:100BA000ADF812004FF48040ADF814004CF2503014
:100BB000029001224FF480718948FFF7B8FC02A926
:100BC0008748FFF797FA01218548FFF761FB01216C
:100BD0008348FFF709FC2900C9B22000C0B200F029
:100BE00099F807B030BD38B504000D005FF400314E
:100BF0007B48FFF74FFD0028F8D101217848FFF727
:100C000072FB78497648FFF745FD0028F9D00022AD
:100C1000C1217348FFF713FC73497148FFF7BCFC0F
:100C20000028F9D02100C9B26D48FFF731FC6F49A7
:100C30006B48FFF7B1FC0028F9D02900C9B2684819
:100C4000FFF726FC69496648FFF7A6FC0028F9D0A3
:100C500001216348FFF772FB65496148FFF71AFD00
:100C60000028F9D131BD38B504005FF400315C488B
:100C7000FFF710FD0028F8D101215948FFF733FB99
:100C800058495748FFF706FD0028F9D00022C12136
:100C90005348FFF7D4FB54495148FFF77DFC002827
:100CA000F9D02100C9B24E48FFF7F2FB01214C48B0
:100CB000FFF719FB4B494A48FFF7ECFC0028F9D035
:100CC0000122C1214648FFF7BAFB4A494448FFF7D1
:100CD00063FC0028F9D048494148FFF75DFC002833
:100CE000F9D03F48FFF7E6FB05004FF2FF713C48A3
:100CF000FFF7F1FB00213A48FFF74BFB0121384891
:100D0000FFF71CFB3A493648FFF7C4FC0028F9D12D
:100D1000280032BD38B504000D0001213048FFF72E
:100D200038FB0C20FFF79FFFC42813D1E80050EADE
:100D3000C411C9B22620FFF756FF07211320FFF781
:100D400052FFE80050EAC41050F00101C9B2262059
:100D5000FFF749FF31BD2DE9D0430620FFF783FFA0
:100D60000007FAD50120FFF77EFF04000220FFF7FD
:100D70007AFF80460320FFF776FF0600200000215F
:100D8000090241EA106100025FF0000950EA080020
:100D900051EA0901090241EA1061000200273043CB
:100DA0003943000940EA01700909BDE8D08338B52C
:100DB00004000D002900C9B22000C0B2FFF713FFE4
:100DC00031BD80B5FFF7C7FF00F058FB00220B4B89
:100DD00000F062FB00F08CFC02BD00000004024049
:100DE000005400400100001082000700840007004A
:100DF000100000100200030040000300000030401B
:100E000070B5082400254C4E2A002100300000F067
:100E100085FC00F07CFE00F0F9FF01F0EDF870BDFC
:100E200080B500F0EAFD02BD02001068002808D07D
:100E30001068884203D108681060012002E012683F
:100E4000F3E70020704710B5040000F046FE2100D3
:100E50003948FFF7E9FF002805D121003748FFF79F
:100E6000E3FF002801D0012000E00020C0B200F024
:100E70003BFE10BD70B504000D0000F02EFE2000FA
:100E8000FFF7E1FFA560002020602C4806003068D5
:100E9000002801D03668FAE7346000F025FE70BD06
:100EA000F8B504000D00160000F017FE2000FFF753
:100EB000CAFF6560A660002020601F4807003868F0
:100EC000002809D038684068401B012802DB3868D8
:100ED000206001E03F68F2E73C6000F005FEF1BDF4
:100EE00010B5002400F0F9FD13484068002806D032
:100EF00011484068040020680F49486013E00E481C
:100F0000006800280DD00C480068406800F0A5FD7E
:100F1000002806D0084800680400206806490860D8
:100F200001E000F0ECFD00F0DFFD002CD9D0200046
:100F3000A1688847D5E700001402002018020020AD
:100F4000F0B4C9B24B00C9B2CC1010EB8404C9B2E2
:100F5000CD1010EB85052D6A0F2611F00707FFB2A3
:100F6000BF00BE40B54392B212F00F0611F0070762
:100F7000FFB2BF00BE4035432562046803259D4093
:100F8000AC43C2F30115ADB29D402C4304608468AC
:100F900003259D40AC43C2F38115ADB29D402C4367
:100FA0008460848801258D40AC43C2F30025ADB236
:100FB0008D402C438480C46803259D40AC43C2F31C
:100FC0004125ADB29D402C43C460F0BC704710B4C5
:100FD000838A01248C40A343D2B212F001048C40D6
:100FE0002343838210BC7047F0B5354B1B6853F028
:100FF0000103334C2360C9B211F003039B000F249B
:101000009C40304DC9B28E1055F82650A543C0B251
:1010100010FA03F635432B4EC9B28F1046F827500D
:1010200001258D40284E3668AE43274F3E60274E3F
:101030003668AE43254F3E60D2B212F03806F6B2A3
:10104000202E0AD0282E02D0302E0CD015E01E4EB5
:1010500036682E431C4F3E600FE01C4E36682E4310
:101060001A4F3E6009E0184E36682E43164F3E6018
:10107000164E36682E43154F3E60154E36682E4389
:10108000134F3E60C9B2052901DA8E1D05E0C9B2D1
:101090000A2901DA172600E028267027DFF834C075
:1010A000F6B206F80C70012716F01F0C17FA0CF7B1
:1010B000DFF824C0F6B25FEA661E4CF82E70F0BD71
:1010C0002038024008000140080401400C0401409F
:1010D0000004014000E400E000E100E0002200F034
:1010E00093BF00002DE9F84304000D0000260027FF
:1010F0005FF000085FF00009DFF88001844220D033
:10110000DFF87C0184421CD0DFF87801844218D0DB
:10111000DFF87401844214D0DFF87001844210D0EB
:10112000DFF8340384420CD0DFF86401844208D035
:10113000DFF86001844204D0B921DFF85C01FFF7D9
:101140009BFB2868002804D1BA21DFF84C01FFF787
:1011500093FB287900280DD0287901280AD0287916
:10116000022807D02879032804D0BB21DFF8280102
:10117000FFF782FBE87900280AD0E879012807D038
:10118000E879022804D0BC21DFF80C01FFF774FBDA
:1011900000200600102E6ED20120B0400700286803
:1011A00038408046B84564D120688146032031002C
:1011B000C9B24900884039EA000928793100C9B22A
:1011C0004900884050EA0909C4F8009028790128AC
:1011D00002D0287902283AD1687900280DD06879A0
:1011E00001280AD06879022807D06879032804D03A
:1011F000D321DFF8A400FFF73FFBA068814603205E
:101200003100C9B24900884039EA000968793100E3
:10121000C9B24900884050EA0909C4F80890A87981
:10122000002807D0A879012804D0DD21DFF8680064
:10123000FFF722FBA08881460120B04039EA00096F
:10124000A879B04080B250EA0909A4F80490E06897
:10125000814603203100C9B24900884039EA0009BB
:10126000E8793100C9B24900884050EA0909C4F858
:101270000C90761C8EE7BDE8F18300000000024070
:101280000004024000080240000C0240001002402E
:1012900000180240001C0240EC2300082DE9F04138
:1012A00004000D00160000275FF000086B48844220
:1012B00019D06B48844216D06A48844213D06A48D9
:1012C000844210D0694884420DD0634884420AD0D9
:1012D0006748844207D06748844204D040F2222104
:1012E0006548FFF7C9FAADB2002D31D0ADB2012D7E
:1012F0002ED0ADB2022D2BD0ADB2032D28D0ADB281
:10130000042D25D0ADB2052D22D0ADB2062D1FD0B3
:10131000ADB2072D1CD0ADB2082D19D0ADB2092D3C
:1013200016D0ADB20A2D13D0ADB20B2D10D0ADB288
:101330000C2D0DD0ADB20D2D0AD0ADB20E2D07D0B3
:10134000ADB20F2D04D040F223214B48FFF794FAA1
:10135000F6B2002E58D0F6B2002E55D0F6B2002EBE
:1013600052D0F6B2002E4FD0F6B2002E4CD0F6B2CC
:10137000002E49D0F6B2012E46D0F6B2022E43D04E
:10138000F6B2022E40D0F6B2032E3DD0F6B2032EB6
:101390003AD0F6B2032E37D0F6B2042E34D0F6B2DD
:1013A000042E31D0F6B2052E2ED0F6B2052E2BD05B
:1013B000F6B2072E28D0F6B2072E25D0F6B2072EA9
:1013C00022D0F6B20A2E1FD0F6B20B2E1CD0F6B2E7
:1013D0000E2E19D0F6B2022E16D0F6B2062E13D06B
:1013E000F6B2082E10D0F6B2082E0DD0F6B20C2EA2
:1013F0000AD0F6B20C2E07D0F6B20F2E04D04FF45E
:1014000009711D48FFF738FAF6B215F00700C0B2AF
:10141000800016FA00F00700ADB2E81014EB80006F
:10142000ADB2E91014EB8101096A0F2215F0070330
:10143000DBB29B009A4091430162ADB2E81014EB1D
:101440008000006A38438046ADB2E81014EB80009B
:10145000C0F82080BDE8F081001402400000024086
:101460000004024000080240000C0240001002404C
:1014700000180240001C0240EC230008010000BFDD
:1014800009D0B0FA80F18840C91CC1F58461090512
:1014900001EBD021400570472DE9F04140F2FF7586
:1014A00081EA030C0CF0004C15EA11541DBF15EA3B
:1014B0001357AC42AF42E9E0BC41C1F31301C3F39F
:1014C0001303801A994143F4801304D2641E400030
:1014D000494180185941C90241EA5051B1FBF3F624
:1014E00003FB1611A2FB0675D7EBC020A94102D25F
:1014F000761E80185941C90241EA5051B1FBF3FEF2
:1015000003FB1E11A2FB0E75D7EBC020A94103D22D
:10151000AEF1010E80185941890241EA90517605D9
:1015200046EA8E2EB1FBF3F603FB1611A2FB0675FD
:10153000D7EB8020A94102D2761E80185941C902FA
:1015400041EA50514EEA060EB1FBF3F603FB1611C9
:10155000A2FB0675D7EBC020A94102D2761E8018E7
:101560005941C90241EA5051B1FBF3F703FB17118E
:10157000A2FB0735D3EBC020A94167F100070CBFE0
:10158000004247F0010766F3D5274FEA1E31B8083D
:1015900014F5806414DDBD0775F1004250EB0E5068
:1015A00051EB045111F5801F5CBF41EA0C01BDE80D
:1015B000F0814CF07F6141F0E0410020BDE8F08116
:1015C000BD076D0840EA0E5041F48011D4F10104CA
:1015D000B4F120060ADAC4F120060200E04001FA64
:1015E00006F3E1401843B24015430EE0342C14DCFE
:1015F000C6F1200445EA40056D0820FA06F21543BD
:1016000021FA06F0A1400D43002175F1004250F18E
:10161000000051EB0C01BDE8F08100205FEA0C01F5
:10162000BDE8F081CFB992185B41B3FA83F704BFEC
:10163000B2FA82F6BF190B3FB7F120062FBF02FAAC
:1016400006F3BB40C7F1200622FA06F638BF334343
:10165000BA401CB1E419641E2FE77F4231F000410B
:10166000B1FA81F404BFB0FA80F6A4190B3CB4F1CE
:1016700020062FBF00FA06F1A140C4F1200620FA8F
:1016800006F638BF3143A0403C1B16E7AC421ABFF8
:1016900005EA1357AF4214E050EA41061CBF52EA74
:1016A0004306BFE750EA4107304661461CBF41EAA6
:1016B0000551BDE8F08152EA430C08BFC143BDE8C3
:1016C000F08100204FF4001616EB410F98BF16EB87
:1016D000430F08BF16EB410F24BFC14305E016EBD3
:1016E000430F0CBF61464CEA0551BDE8F081000094
:1016F000400D40EAC120490080F00D8040F00040DC
:10170000490DA1F58061491C05D4D1F11F0154BFD9
:10171000C840C01770474FF00000704762F30F22B7
:1017200062F31F42401810F0030308D0C91A1FD3F8
:10173000DB0748BF00F8012D28BF20F8022D130059
:1017400030B414461546103928BF20E93C00FAD8B9
:10175000490728BF20E90C0048BF40F8042D890044
:1017600028BF20F8022D48BF00F8012D30BC70477B
:10177000C91818BF00F8012DCB0728BF00F8012DAC
:101780007047000038B5DFF8B003006850F007007C
:10179000DFF8A41308600024E4B2062C26D24FF42C
:1017A0003472DFF89803E4B220184178DFF88C0334
:1017B000E4B2205C4FF48063DFF8845303FB0050F5
:1017C000FFF7BEFB0022DFF87403E4B22018417873
:1017D000DFF86803E4B2205C4FF48063DFF8605305
:1017E00003FB0050FFF7F3FBA41CD5E70024E4B291
:1017F000062C1FD24FF4E072DFF84803E4B2201841
:101800004178DFF84003E4B2205C4FF48063DFF8F6
:10181000305303FB0050FFF793FB2822DFF824032B
:10182000E4B220184178C748E4B2205CFFF7DCFB43
:10183000A41CDCE731BD10B50400E4B2012C04D0D7
:10184000E4B2002C01D000F0A9F9E4B2E243D2B234
:101850000D21BD48FFF7BBFB2200D2B20421B848DE
:10186000FFF7B5FB10BD10B504002200D2B2002175
:10187000B648FFF7ACFB10BD10B50400E4B2002C75
:1018800002D0E4B2012C0CD14FF434720221AC48E6
:10189000FFF756FB2200D2B20221A948FFF797FBBF
:1018A00005E04FF4E0720221A548FFF749FB10BDA7
:1018B00080B5A7480068800705D50220A4490860C4
:1018C000002000F0F3FAA2480068400506D54FF466
:1018D00080609F490860012000F0E8FA9C48006899
:1018E000000506D54FF4006099490860022000F019
:1018F000DDFA01BD80B5FFF7DBFF01BD80B5FFF765
:10190000D7FF01BD80B5FFF7D3FF01BD80B5FFF75D
:10191000CFFF01BD80B5FFF7CBFF01BD80B5FFF75D
:10192000C7FF01BD80B5FFF7C3FF01BD80B5894882
:10193000006850F480508749086040F2E542052174
:101940007F48FFF7FDFA40F2E54206217C48FFF7A9
:10195000F7FA40F2E54207217948FFF7F1FA4FF430
:1019600051707D49088001BD0100C9B27B480180EA
:101970007B480088C007FBD578480088C0B2704714
:101980007848006850F480707649086076480068AE
:1019900050F4807074490860734800688005FBD576
:1019A0006C48006850F004006A4908606F4800689D
:1019B00050F004006D4908606D48006850F0040064
:1019C0006B4908606A48006830F0040068490860A4
:1019D0004FF48040674908807020674908705FF0C5
:1019E0000070664908606648008850F0010064494C
:1019F0000880012063490880704738B500F06DF811
:101A0000614844686148056861480088C00703D59B
:101A10005E4800680500641C00F066F8ADB255EA47
:101A2000044032BD10B50400FFF7E7FF0100621A61
:101A3000012A01DA002007E01014002802D04FF636
:101A4000FF7001E0100080B210BD10B5040020004E
:101A5000FFF7E8FF0028FAD110BD38B504004C4864
:101A600000884FF6FB710840494908802000FFF7C5
:101A7000D9FF050080B2052808DA414800884FF6F2
:101A8000FB7108403E490880012012E03F48006891
:101A9000ADB228183F4908603948008850F004006A
:101AA000374908803C48008850F010003A490880C7
:101AB000002032BD36480088C00704D5324840684F
:101AC000401C3149486032480088400701D52C4805
:101AD000008800202E490880704772B62A480068A6
:101AE000401C29490860704727480068401E264965
:101AF000086025480068002800D162B67047194880
:101B0000006850F001001749086030BF704770B599
:101B1000082400251C4E2A0021003000FFF7FEFD9E
:101B2000FFF7DBFFFFF72EFEFFF700FFFFF728FFB1
:101B3000FFF7DAFF70BD00001C3802405026000895
:101B4000000002405826000800080240000402403D
:101B50001404014020380240003001400C300140A4
:101B60000830014000700040343802402C380240F8
:101B7000143802400808014019E400E000E100E0E8
:101B80000C080140000801400C020020240801401C
:101B900010080140380801402008014080B5FFF7D7
:101BA0009CFFFFF7ACFFFEE738B504000D000020F6
:101BB000FFF759FE54F08000C0B2FFF7D5FE2800B1
:101BC000C0B2FFF7D1FE0120FFF74DFE31BD38B5A1
:101BD00004000020FFF747FE14F07F00FFF7C4FE6B
:101BE0000020FFF7C1FE05000120FFF73CFE2800A2
:101BF000C0B232BDF8B504000D0016000020FFF79A
:101C000032FE14F07F00FFF7AFFE0027FFB2F6B2FE
:101C1000B74206D20020FFF7A7FEFFB278557F1C1F
:101C2000F4E70120FFF71FFEF1BD10B5040001200D
:101C3000FFF7CDFF10F0F80054EA0001C9B201200F
:101C4000FFF7B2FF10BD10B580242100C9B20120FA
:101C5000FFF7AAFF10BD38B5DFF88003C08900F098
:101C6000ECF90400DFF87403C08900F0E9F985019C
:101C7000DFF86803C08900F0E7F9002805D00228E2
:101C800009D005D3032809D00AE055F0080507E07C
:101C900055F0100504E055F0180501E055F0200559
:101CA000E4B2052C02D0E4B2062C08D1DFF82C03F4
:101CB000C08900F0C5F9002801D155F00105DFF811
:101CC0001C03C08900F0C4F9002801D155F00205B9
:101CD000DFF80803C08900F0BFF900280BD055F0E9
:101CE0000405DFF8F802C08900F0B6F90100C9B2B6
:101CF0002220FFF759FF2900C9B21D20FFF754FF2A
:101D00002001603050F00401C9B21E20FFF74CFFE3
:101D100031BD38B5DFF8C40280680021C90441EA4A
:101D20005031C004DFF8B822002300F099F9040014
:101D30000D00210CC9B20620FFF736FF200080B24B
:101D4000010AC9B20720FFF72FFF2100C9B20820FE
:101D5000FFF72AFF31BD10B50400FFF774FF012023
:101D6000FFF735FF000601D4FFF718FF0120FFF74A
:101D70005CFFE4B2022C08D10A211D20FFF714FFFA
:101D800074211E20FFF710FF03E0FFF764FFFFF749
:101D9000C0FF23210C20FFF707FF40212320FFF77E
:101DA00003FF3320FFF713FF50F04001C9B2332087
:101DB000FFF7FAFEDFF82402017C1F20FFF7F4FE94
:101DC00034213920FFF7F0FEC0214020FFF7ECFE60
:101DD000FF211220FFF7E8FE8348E4B2205CC143F4
:101DE000C9B21120FFF7E0FE0020FFF724FDE4B2A6
:101DF000002C07D179484068FFF727FE0620FFF73F
:101E000014FF02E00520FFF710FF10BDF8B5FFF743
:101E100064FE0120FFF730FDFFF702F82030FFF7E6
:101E200014FE0220FFF728FDFEF7FAFFA330FFF7AC
:101E30000CFE0020FFF7F9FE4220FFF7C8FE040069
:101E4000E4B2222C01D0FFF7A9FE0220FFF783FFA6
:101E50000120FFF7BCFE10F007000528F8D101258E
:101E6000102D1ADA0026082E15DA2C20FFF7AFFE07
:101E700010F001000700FFB22C20FFF7A8FE10F0C1
:101E800001008742F1D05948285C57EA4000574981
:101E90006854761CE7E76D1CE2E710205349087090
:101EA0000020FFF7C2FEFFF71FFEF1BDF8B50400EA
:101EB000FEF7B6FF05000120FFF789FE000655D5A5
:101EC0001220FFF784FE0600300703D5681E434941
:101ED000086042E070063AD54048C08900F0B0F88A
:101EE000002808D13D48C08900F0A7F8404931F8E2
:101EF0001000281A0500394845601D20FFF767FECD
:101F0000400703D52220FFF762FE02E01320FFF70F
:101F10005EFE324981F847011020FFF758FE0100AC
:101F2000C9B20D20FFF740FE2C4890F847212D49FB
:101F30000020FFF75FFE1920FFF749FE274948738D
:101F40001A20FFF744FE3D382449087305E03006A7
:101F500003D50020214981F84701FF211120FFF717
:101F600023FEFF211220FFF71FFE2CE03E20FFF78B
:101F70002EFE06003F20FFF72AFE0700380702D595
:101F8000164805601FE0780715D5144845603220D3
:101F9000FFF71DFE114981F84701104890F84721CD
:101FA00010490020FFF726FE00200C49487300204E
:101FB0000A49087307E0700704D50020074981F833
:101FC000470100E0FEE70020FFF72FFE0348C1694C
:101FD0000848FEF74FFFF1BD000000001C00002084
:101FE0000048E8016401002068260008FC01002088
:101FF0000C2600083000002040200249A1F8AC0067
:10200000704700001C00002000B500BF130096467A
:102010009446103928BFA0E80C50FAD85FEA417CFA
:1020200028BF0CC048BF40F8042BC90728BF20F8C0
:10203000022B48BF00F8012B00BD10F007007047CD
:10204000C0F3C100C0B27047C0F34110C0B27047C6
:10205000C0F3C01080B2704780B2000A80B27047EF
:102060001B4213D1094236D12AB18446B0FBF2F0AB
:1020700002FB10C2704700F06BB8FCD300220023B3
:1020800070470B000200002100207047904271EB66
:10209000030CF6D370B5B1FA81F4B3FA83F52C1BB7
:1020A000A340C4F1200532FA05F63343A2405FF0A5
:1020B0000046E64002E05B085FEA3202841A71EBF8
:1020C000030524BF204629467641F4D302000B00C5
:1020D0003000002170BD012ACFD970B5140C20D07A
:1020E000B1FA81F4B2FA82F5C4F120046419B4F1B2
:1020F0002006D6D3B2405FF00044F440002502E051
:1021000052085FEA3303C61A71EB020E24BF304651
:10211000714664416D41F3D302000B002000290099
:1021200070BD0C46B1FBF2F102FB11452D0445EAEE
:102130001045B5FBF2F402FB145580B240EA0545A8
:10214000B5FBF2F002FB105240EA044070BD000003
:102150007047000080B55148006850F480704F49C6
:1021600008604F4800684F4908404D4908604B4897
:1021700000684D490840494908604848006830F403
:102180008020464908604648006830F47D00444994
:10219000086000204549086000F005F85FF0006025
:1021A0004349086001BD82B00020019000200090EA
:1021B0003A48006850F00100384908603748006824
:1021C00010F0020000900098002803D10198B0F5AB
:1021D000A04FF3D131480068800702D5012000905C
:1021E00001E0002000900098012853D13148006898
:1021F00050F004002F4908602E48006850F002009B
:102200002C4908602B48006850F0010029490860FB
:102210002948006850F08050274908604FF400605A
:102220002649086026480068C006FBD41C480068A0
:102230001B4908601A480068194908601848006876
:10224000174908601648006830F47D00144908609A
:102250001348006850F40800114908600F480068EE
:1022600050F080700D4908600C4800688001FBD573
:102270000B48006880088000094908600848006829
:1022800050F00300064908600548006810F00C0093
:102290000C28F9D102B0704700000000003802405D
:1022A000083802400CC0FF88FEFFFEEE0C380240EA
:1022B00008ED00E0003C024024380240007000407D
:1022C000047000402DE9F04104000D0000260027B5
:1022D0005FF000083148844204D040F23371304846
:1022E000FEF7CAFAADB2B5F5837F13D0ADB240F2B6
:1022F000052085420ED0ADB240F20740854209D09C
:10230000ADB242F21A00854204D040F23471244842
:10231000FEF7B2FAADB2280A070060680121A940B1
:10232000084080462068384205D0B8F1000F02D03E
:102330000120060001E0002006003000C0B2BDE828
:10234000F08170B504000D0000261448844204D0CA
:1023500040F25B711248FEF78FFAADB2B5F5837F9C
:1023600013D0ADB240F2052085420ED0ADB240F29E
:102370000740854209D0ADB242F21A00854204D02E
:1023800040F25C710648FEF777FAADB2280A060003
:10239000F6B2F043206070BD000000000024014050
:1023A000A4230008433A5C55736572735C526F6DE9
:1023B00061696E5C446F63756D656E74735C5052D9
:1023C0004F4A45544C4F52415C6C6F72615C507285
:1023D0006F6A65745C73746D33325C73746D333221
:1023E0006C3178785F6164632E630000433A5C551A
:1023F000736572735C526F6D61696E5C446F637577
:102400006D656E74735C50524F4A45544C4F524147
:102410005C6C6F72615C50726F6A65745C73746D32
:1024200033325C73746D33326C3178785F67706906
:102430006F2E6300433A5C55736572735C526F6D27
:1024400061696E5C446F63756D656E74735C505248
:102450004F4A45544C4F52415C6C6F72615C5072F4
:102460006F6A65745C73746D33325C73746D333290
:102470006C3178785F6932632E630000433A5C55B3
:10248000736572735C526F6D61696E5C446F6375E6
:102490006D656E74735C50524F4A45544C4F5241B7
:1024A0005C6C6F72615C50726F6A65745C73746DA2
:1024B00033325C73746D33326C3178785F7263637E
:1024C0002E6300007047FEE7FEE7FEE7FEE7704779
:1024D00070477047704780B54FF483710648FFF727
:1024E000F1FE002806D04FF483710348FFF729FF5F
:1024F00000F004F801BD00000024014080B502484E
:10250000006B804701BD0000C40100200D0A3D3D65
:102510003D3D3D3D3D3D3D3D3D3D3D3D20444542F4
:1025200055472053544152544544203D3D3D3D3D87
:102530003D3D3D3D3D3D3D3D3D0D0A0010B450F853
:10254000041B79B10268436812180830DC0744BFE5
:10255000A9F10104E31852F8044B43F8044B091F96
:10256000F9D1ECE710BC704710B507497944183130
:10257000064C7C44163404E00A68081D511888474C
:102580000146A142F8D110BD08000000280000005B
:10259000EBE2FFFF000200001C0000200000000032
:1025A0009DFFFFFF1C000000540100000000002000
:1025B0000000000000F00BF8002801D0FFF7D4FF66
:1025C0000020C046C046FEF740F900F002F80120A6
:1025D000704700F001B800000746384600F002F8E6
:1025E000FBE7000080B5C046C046024A1100182033
:1025F000ABBEFBE7260002003031323334353637CC
:102600003839616263646566000000000000000004
:1026100036006A00E600BE01FE0300000148804764
:102620000148004755210008452600080D0A52655B
:102630006164203A20000000696E6974206F6B0DA0
:102640000A000000C046C046C046C046FFF7B2FFC1
:1026500001000004020D00000101010A010B00004D
:10266000696E69740D0A0000C0400000FFF7FEBFEC
:10267000FFF7FEBFFFF7FEBFFFF7FEBFFFF7FEBF8E
:10268000FFF7FEBFFFF7FEBFFFF7FEBFFFF7FEBF7E
:10269000FFF7FEBFFFF7FEBFFFF7FEBFFFF7FEBF6E
:1026A000FFF7FEBFFFF7FEBFFFF7FEBFFFF7FEBF5E
:1026B000FFF7FEBFFFF7FEBFFFF7FEBFFFF7FEBF4E
:1026C000FFF7FEBFFFF7FEBFFFF7FEBFFFF7FEBF3E
:1026D000FFF7FEBFFFF7FEBFFFF7FEBFFFF7FEBF2E
:1026E000FFF7FEBFFFF7FEBFFFF7FEBFFFF7FEBF1E
:1026F000FFF7FEBFFFF7FEBFFFF7FEBF00000000C1
:102700000102030401020304060708090304060882
:082710000C101820300000003D
:040000050800264584
:00000001FF
